:020000040800F2
:1000000068210020D5050008C1020008C3020008CD
:10001000CF020008DB020008E70200080000000031
:10002000000000000000000000000000F3020008D3
:10003000F502000800000000EB050008F7020008C8
:10004000EF050008EF050008EF050008FB020008B7
:10005000EF050008EF050008F9020008EF050008A9
:10006000EF050008EF050008EF050008EF050008A0
:10007000EF050008EF050008EF050008EF05000890
:10008000EF050008EF050008EF050008EF05000880
:10009000EF050008EF050008EF050008EF05000870
:1000A000EF050008EF050008EF050008EF05000860
:1000B000EF050008EF050008EF050008EF05000850
:1000C000EF050008EF050008EF050008EF05000840
:1000D000EF050008C3180008E14B0008EF05000811
:1000E000EF050008EF050008EF050008EF05000820
:1000F000EF050008EF050008EF050008EF05000810
:10010000EF050008EF050008EF050008EF050008FF
:10011000EF050008EF050008EF050008EF050008EF
:10012000EF050008EF050008EF050008EF050008DF
:1001300000F002F800F0B4F80AA090E8000C824445
:100140008344AAF10107DA4501D100F0A9F8AFF222
:10015000090EBAE80F0013F0010F18BFFB1A43F0A5
:100160000103184710720000307200000A444FF07B
:10017000000C10F8013B13F0070408BF10F8014B06
:100180001D1108BF10F8015B641E05D010F8016B4B
:10019000641E01F8016BF9D113F0080F1EBF10F8AF
:1001A000014BAD1C0C1B09D16D1E58BF01F801CBD2
:1001B000FAD505E014F8016B01F8016B6D1EF9D555
:1001C0009142D6D37047000000230024002500266A
:1001D000103A28BF78C1FBD8520728BF30C148BFAA
:1001E0000B6070476E2905F05381702905F0B382CA
:1001F000662906F0C183652906F0BE83672906F0EB
:10020000BB836129AFF3008003681B0A28BF41F05C
:100210008001692904F03886642904F0358675293F
:1002200004F032866F2905F04082782905F07F823C
:10023000E92905F0DB81E42905F0D881F52905F0ED
:10024000D581EF2905F03D82F82905F07E8203680B
:10025000DB0928BF41F08001632905F05C81732927
:1002600005F06181E32905F06F85F32905F07485B8
:10027000002070471FB59DE8030005F041F805F028
:100280000BFE04000020002106F04AFB401C6060C9
:100290000020002106F05AFBE0601FBD10B510BD24
:1002A00005F0D5FD1146FFF7E5FF01F0B5FF05F0BC
:1002B000B7FE03B4FFF7F2FF03BC05F0E7FE000052
:1002C00070470EA11C4801F0D8FA00BFFEE71BA141
:1002D000194801F0D2FA00BFFEE727A1164801F045
:1002E000CCFA00BFFEE733A1134801F0C6FA00BF05
:1002F000FEE7704770477047704770470D0A2A2A1B
:100300002A2A2A2A2A2A2A2A2A2A2A2A2A2A2A2A4D
:100310002A486172644661756C745F48616E646CF2
:1003200065722A2A2A2A2A2A2A2A2A2A2A2A2A2AAA
:100330002A2A2A2A2A0D0A00003801400D0A2A2AF0
:100340002A2A2A2A2A2A2A2A2A2A2A2A2A2A2A2A0D
:100350002A4D656D4D616E6167655F48616E646CC5
:1003600065722A2A2A2A2A2A2A2A2A2A2A2A2A2A6A
:100370002A2A2A2A2A0D0A000D0A2A2A2A2A2A2A81
:100380002A2A2A2A2A2A2A2A2A2A2A2A2A42757321
:100390004661756C745F48616E646C65722A2A2AC6
:1003A0002A2A2A2A2A2A2A2A2A2A2A2A2A2A2A2AAD
:1003B0000D0A00000D0A2A2A2A2A2A2A2A2A2A2A6B
:1003C0002A2A2A2A2A2A2A2A2A5573616765466117
:1003D000756C745F48616E646C65722A2A2A2A2AD9
:1003E0002A2A2A2A2A2A2A2A2A2A2A2A2A2A0D0AAA
:1003F000000000000CB50020019000906C480068DF
:1004000040F480306A49086000BF6948006800F421
:10041000003000900198401C0190009818B9019894
:10042000B0F5A06FF1D16248006800F4003010B15F
:100430000120009001E0002000900098012843D1A5
:100440005C48006840F010005A490860084600689F
:1004500020F0030008600846006840F002000860D1
:10046000534840685249486008464068486008461A
:10047000406840F4806048600846406820F47C1082
:1004800048600846406840F48810486008460068A4
:1004900040F08070086000BF4548006800F00070C0
:1004A0000028F9D04248406820F0030040494860E5
:1004B0000846406840F00200486000BF3C48406881
:1004C00000F00C000828F9D10CBD10B5FFF792FF21
:1004D00010BD10B53648006840F00100344908608E
:1004E0000846406834490840314948600846006879
:1004F000324908402E4908600846006820F48020F0
:1005000008600846406820F4FE0048604FF41F0071
:100510008860FFF7DAFF4FF000602949086010BDDE
:1005200010B5002100200022214B5B6803F00C0174
:1005300021B1042906D0082928D107E0214B224CFB
:10054000236027E01F4B204C236023E0184B5B689F
:1005500003F47010164B5B6803F48032022303EB44
:10056000904022B9194B4343174C23600DE0104BC8
:100570005B6803F4003323B1144B4343124C2360F4
:1005800003E0104B4343104C236003E00D4B0E4C33
:10059000236000BF00BF064B5B68C3F303130C4C22
:1005A000E15C094B1B68CB40074C236010BD000089
:1005B00000100240002002400000FFF8FFFFF6FE9E
:1005C00008ED00E000127A000000002000093D0064
:1005D000040000200948804709480047FEE7FEE77D
:1005E000FEE7FEE7FEE7FEE7FEE7FEE7FEE7FEE7E3
:1005F00004480549054A064B70470000D30400082B
:1006000031010008680900206821002068150020D9
:100610006815002031490143314A1160704770B5B7
:10062000002100230F22C47804B32D4C246804F465
:10063000E064C4F5E064210AC1F10403CA404478CF
:1006400004FA03F18478144021430901254C06780B
:10065000A155047804F01F050124AC4005786D1104
:10066000AD0005F1E025C5F8004109E0047804F08B
:100670001F050124AC401C4D0678761145F8264034
:1006800070BD1A4A0A400243154B1B1F1A6070477F
:1006900039B1134A121D12680243114B1B1D1A6017
:1006A00006E00F4A121D126882430D4B1B1D1A6093
:1006B0007047042808D14FF0E021096941F0040196
:1006C0004FF0E022116107E04FF0E021096921F0CD
:1006D00004014FF0E0221161704700000000FA05AC
:1006E0000CED00E000E400E080E100E080FFFF1F8F
:1006F00010B50446CC48844208D10121042000F002
:100700002DFB0021042000F029FB46E0C74884426D
:1007100008D10121082000F021FB0021082000F071
:100720001DFB3AE0C248844208D10121102000F0AC
:1007300015FB0021102000F011FB2EE0BD48844283
:1007400008D10121202000F009FB0021202000F029
:1007500005FB22E0B848844208D10121402000F086
:10076000FDFA0021402000F0F9FA16E0B348844277
:1007700008D10121802000F0F1FA0021802000F052
:10078000EDFA0AE0AE48844207D10121801500F05D
:10079000E5FA0021A01500F0E1FA10BD10B5012125
:1007A000084600F0DBFA0021012000F0D7FA10BD66
:1007B0002DE9F041024600250026002000230024F8
:1007C000002791F803C00CF00F0591F803C00CF05E
:1007D000100CBCF1000F03D091F802C04CEA0505E3
:1007E00091F800C0BCF1000F31D0146800202BE05C
:1007F0004FF0010C0CFA00F3B1F800C00CEA03064C
:100800009E4220D183004FF00F0C0CFA03F7BC433B
:1008100005FA03FC4CEA040491F803C0BCF1280F6C
:1008200006D14FF0010C0CFA00FCC2F814C00AE02B
:1008300091F803C0BCF1480F05D14FF0010C0CFA40
:1008400000FCC2F810C0401C0828D1D31460B1F8D5
:1008500000C0BCF1FF0F34DD546800202EE000F131
:10086000080C4FF0010808FA0CF3B1F800C00CEACC
:1008700003069E4221D183004FF00F0C0CFA03F7C0
:10088000BC4305FA03FC4CEA040491F803C0BCF134
:10089000280F05D100F1080C08FA0CF8C2F81480F2
:1008A00091F803C0BCF1480F07D100F1080C4FF0DC
:1008B000010808FA0CF8C2F81080401C0828CED3B2
:1008C0005460BDE8F0814FF6FF7101800221817014
:1008D0000421C17070470246002093680B400BB1A1
:1008E000012000E0002070470146886880B2704710
:1008F00002460020D3680B400BB1012000E000202D
:1009000070470146C86880B2704701617047416115
:1009100070470AB1016100E041617047C1607047F2
:100920004FF480320A438261816182618269826907
:10093000704702460020434B18684FF680731840FA
:1009400040EA021008433F4B186070473E49C861B7
:100950007047F0B50A46002300240021002500F06E
:100960000046B6F1004F02D1364EF16901E0354E36
:100970007168C0F3034583B200F44016B6F5401F1A
:1009800008D121F070612F4E766826F070662D4FE9
:100990007E6012E000F48016B6F5801F06D10326B3
:1009A00006FA05F4A14341F0706106E0460D3601F8
:1009B00003FA06F6B14341F0706122B1460D3601EB
:1009C00003FA06F6314300F00046B6F1004F02D1BB
:1009D0001C4EF16101E01B4E7160F0BD30B500228C
:1009E0008B071C0F0F2303FA04F2164B08338C10ED
:1009F00053F824309343134C08348D1044F82530B9
:100A000023468C1053F824308C07240F00FA04F48A
:100A100023430C4C08348D1044F8253030BD0A496E
:100A2000DC3108607047000000080140000C014004
:100A3000001001400014014000180140001C01405A
:100A4000002001400000014000002042DF48006813
:100A500040F00100DD49086008464068DC49084074
:100A6000DA49486008460068DA490840D749086012
:100A70000846006820F4802008600846406820F49A
:100A8000FE0048604FF41F0088607047CF49096836
:100A900021F48031CD4A11601146096821F480218A
:100AA0001160B0F5803F03D0B0F5802F0ED106E085
:100AB000C649096841F48031C44A116007E0C3495E
:100AC000096841F4A021C14A116000E000BF00BFE5
:100AD000704710B501460022002300204A11012A68
:100AE00002D1BA4C236806E0022A02D1B74C236A2D
:100AF00001E0B64C636A01F01F02012494401C40DF
:100B00000CB1012000E0002010BD38B5002000909D
:100B10000024002500BF3120FFF7DBFF05460098C9
:100B2000401C00900098B0F5A06F01D0002DF2D0CD
:100B30003120FFF7CEFF08B1012400E00024204659
:100B400038BD01460020A14A106820F0F80040EAB4
:100B5000C10010607047A04908607047024600203D
:100B60009A4B586820F47C1042EA01031843974BD3
:100B70005860704798490866704701460020934ABC
:100B8000506820F003000843506070478F48406869
:100B900000F00C007047014600208C4A506820F09D
:100BA000F00008435060704701460020874A5068B3
:100BB00020F4E06008435060704701460020834AFB
:100BC000506820F4605040EAC1005060704729B17D
:100BD0007E4A527A02437D4B5A7204E07B4A527A33
:100BE00082437A4B5A7270477B49D831086070470C
:100BF00001460020754A506820F440400843506088
:100C000070470021714A20321170704A82F820101A
:100C1000012802D004280AD104E001216B4A2032C5
:100C2000117005E00521694A2032117000E000BF13
:100C300000BF70476949086070476449096A014309
:100C4000624A11627047654944390860704730B59F
:100C500000210022002400235C4D6D6805F00C018A
:100C600021B1042905D0082923D105E05C4D056098
:100C700022E05B4D05601FE0544D6D6805F4701275
:100C8000524D6D6805F48034022505EB92421CB983
:100C9000544D554305600BE04C4D6D6805F400352F
:100CA0001DB1504D5543056002E04D4D5543056063
:100CB00002E04B4D056000BF00BF444D6D6805F07C
:100CC000F0010909484D6B5C0568DD4045603F4D0A
:100CD0006D6805F4E061090A434D6B5C4568DD40D1
:100CE00085603A4D6D6805F46051C90A3E4D6B5CF4
:100CF0004568DD40C560354D6D6805F44041890BA0
:100D00003A4D6B5CC568B5FBF3F5056130BD29B1A3
:100D10002E4A526902432D4B5A6104E02B4A526914
:100D200082432A4B5A61704729B1284A926902438B
:100D3000264B9A6104E0254A92698243234B9A61CB
:100D4000704729B1214AD2690243204BDA6104E09D
:100D50001E4AD26982431D4BDA61704729B11B4A92
:100D6000D2680243194BDA6004E0184AD268824321
:100D7000164BDA60704729B1144A12690243134BCB
:100D80001A6104E0114A12698243104B1A617047DC
:100D900012494039086070470F49C86470470B49D1
:100DA000C87170470948406A40F08070074948623E
:100DB000704701460020054A92680A400AB10120A6
:100DC00000E000207047014988727047001002401F
:100DD0000000FFF8FFFFF6FE00004242800442429E
:100DE00000127A0000093D001400002024000020B9
:100DF00010B50446FB48844209D101218803FFF75E
:100E0000ADFF00214FF48040FFF7A8FF32E0F64825
:100E1000844209D101214804FFF7ADFF00214FF4BE
:100E20000030FFF7A8FF25E0F048844209D10121F6
:100E30008804FFF7A0FF00214FF48020FFF79BFFFD
:100E400018E0EB48844209D10121C804FFF793FF61
:100E500000214FF40020FFF78EFF0BE0E5488442AD
:100E600008D101210805FFF786FF00214FF480100B
:100E7000FFF781FF10BD2DE9F04786B005460E460D
:100E80000024A24600BFA1460027B08900B100BFE0
:100E90002F462C8A4CF6FF700440F08804432C82C5
:100EA000AC894EF6F3100440B0883189084371894B
:100EB00008430443AC81AC8A4FF6FF400440B0893C
:100EC0000443AC8201A8FFF7C2FEC648874202D1A4
:100ED000DDF810A001E0DDF80CA0A88900F40040C6
:100EE00040B10AEBCA0000EB0A1031684900B0FBC0
:100EF000F1F807E00AEBCA0000EB0A10316889003C
:100F0000B0FBF1F86420B8FBF0F004012009642183
:100F100001FB1089A88900F4004040B1322000EBA9
:100F2000C900B0FBF1F000F00700044308E03220F4
:100F300000EB09106421B0FBF1F000F00F00044356
:100F40002C8106B0BDE8F0874FF4165101600021F6
:100F50008180C18001810C21418100218181704704
:100F600010B502460020108A4FF2FF0318400B888C
:100F70004C8823438C882343CC8823431843108216
:100F800010BD0021018041808180C180704721B166
:100F9000828942F40052828104E082894DF6FF7317
:100FA0001A4082817047F0B50346002400260025D0
:100FB000002040F66A17B94200D100BF1846C1F3BD
:100FC000421401F01F06012707FA06F5012C01D192
:100FD0000C3004E0022C01D1103000E014301AB1C2
:100FE00007682F43076002E00768AF430760F0BD62
:100FF0001AB1838A0B43838202E0838A8B43838204
:101000007047028A4FF6F0731A400282028A0A433E
:101010000282704782894FF2FF731A40828182896F
:101020000A438281704721B1828942F002028281A3
:1010300004E082894FF6FD731A4082817047028A6C
:101040004FF6DF731A400282028A0A430282704717
:1010500021B1028A42F48042028204E0028A4BF605
:10106000FF731A4002827047C1F308028280704702
:1010700001468888C0F308007047818941F001016A
:1010800081817047028BD2B20283028B42EA012235
:1010900002837047028B02F47F420283028B0A4371
:1010A0000283704721B1828A42F02002828204E0EA
:1010B000828A4FF6DF731A408282704721B1828A9A
:1010C00042F01002828204E0828A4FF6EF731A40E7
:1010D0008282704721B1828A42F00802828204E053
:1010E000828A4FF6F7731A408282704721B1828953
:1010F00042F40042828103E08289C2F30E028281BF
:10110000704721B1828A42F40062828204E0828ABE
:101110004FF2FF731A4082827047828A4FF6FB7348
:101120001A408282828A0A438282704721B1828A6F
:1011300042F00202828204E0828A4FF6FD731A4076
:101140008282704702460020B1F5007F00D100BFC7
:1011500013880B400BB1012000E00020704701F420
:101160000072B2F5007F00D100BFCA430280704711
:1011700070B50246002400230025002040F66A16C0
:10118000B14200D100BFC1F3421501F01F03012697
:1011900006FA03F3012D02D19689334006E0022DB1
:1011A00002D1168A334001E0968A33400C120126A0
:1011B00006FA04F41688344013B10CB1012000E0A3
:1011C000002070BD10B50022002340F66A14A14231
:1011D00000D100BF0A1201249440A3B2DC43048072
:1011E00010BD0000003801400044004000480040AD
:1011F000004C00400050004010B50446FA488442BC
:1012000008D101214015FFF7A9FD00216015FFF766
:10121000A5FD17E0F548844208D101210015FFF72C
:101220009DFD00212015FFF799FD0BE0F048844259
:1012300008D10121C803FFF791FD00214FF40040C0
:10124000FFF78CFD10BD30B502460020002350682A
:10125000E84C20400D790C6844EA05242043506096
:101260009068E54C2040D1E902542C434D7944EA82
:10127000450420439060D06A20F470000C7C641E0A
:10128000E4B2234340EA0350D06230BD0021016044
:10129000017141718160C16001210174704721B108
:1012A000826842F00102826003E0826822F001025B
:1012B0008260704721B1826842F48072826003E0EC
:1012C000826822F480728260704710B50023CBB22E
:1012D0001AB144681C43446002E044689C43446083
:1012E00010BD816841F0080181607047014600200F
:1012F0008A6802F008020AB1012000E0002070476D
:10130000816841F0040181607047014600208A68CD
:1013100002F004020AB1012000E00020704721B170
:10132000826842F4A002826003E0826822F4A00294
:1013300082607047014600208A6802F480020AB188
:10134000012000E00020704710B50A46002100236C
:10135000416821F46041531E41EA4331416010BDB0
:1013600021B1426842F40062426003E0426822F424
:10137000006242607047F0B504460D46002000212F
:10138000092D11DDE068A5F10A0606EB46070726E0
:1013900006FA07F18843A5F10A0606EB460603FAAA
:1013A00006F10843E0600CE0206905EB45070726DD
:1013B00006FA07F1884305EB450603FA06F10843F0
:1013C0002061072A0FDA606B561E06EB86071F2680
:1013D00006FA07F18843561E06EB860605FA06F163
:1013E0000843606322E00D2A0FDA206BD61F06EB5C
:1013F00086071F2606FA07F18843D61F06EB8606E6
:1014000005FA06F10843206310E0E06AA2F10D0638
:1014100006EB86071F2606FA07F18843A2F10D06A0
:1014200006EB860605FA06F10843E062F0BD21B13D
:10143000826842F48012826003E0826822F48012A3
:10144000826070470146C86C80B2704766484C3075
:101450000068704721B1426842F48062426003E054
:10146000426822F480624260704721B1426842F4CF
:101470008052426003E0426822F48052426070472A
:101480000A460021816821F4E041114381607047E0
:1014900021B1826842F40042826003E0826822F453
:1014A00000428260704721B1826842F40212826079
:1014B00003E0826822F40212826070470146002035
:1014C0008A6802F400120AB1012000E0002070478F
:1014D000F0B504461546002000220026092911DD3A
:1014E000E068A1F10A0707EB470C072707FA0CF29F
:1014F0009043A1F10A0707EB470703FA07F21043ED
:10150000E0600CE0206901EB410C072707FA0CF2C0
:10151000904301EB410703FA07F210432061A06BEF
:10152000C0F30156EF1C06F1010CA7EB0C0707EB0B
:10153000870C1F2707FA0CF29043EF1C06F1010CF1
:10154000A7EB0C0707EB870701FA07F21043A0632C
:10155000F0BD10B50A4600210023816B21F4401133
:10156000531E41EA0351816310BD08B50023009367
:101570000090009B0B440093009B1A6008BD08B5C7
:10158000024600200090009201F12800009B1844C0
:1015900000900098006880B208BD0A4600214168AA
:1015A000164B194011434160704741628262704797
:1015B0000A460021416821F01F0111434160704734
:1015C00040B109490831096841F40001064A08326E
:1015D000116007E004490831096821F40001024A5A
:1015E00008321160704700000024014000280140CB
:1015F000003C0140FFFEF0FFFDF7F1FFFFFD3FFF64
:101600000246002013680B400BB1012000E00020CF
:101610007047CA430260704770B50246002000233D
:1016200000240B125568CEB205EA060415681D4069
:1016300015B10CB1012000E0002070BD00220A129B
:10164000D3430360704700004FF0E020006920F0B2
:1016500004004FF0E021086109202749087008467E
:10166000007800EB4001C1EBC0104FF6FF7101EABA
:10167000C000224908807047002120F07F401E4AA8
:10168000127842434FF0E0235A6100229A6101220E
:101690001A6100BF4FF0E022116901F001021AB196
:1016A00001F48032002AF5D000224FF0E0231A61C5
:1016B0009A617047002100B9704720F07F400F4ABF
:1016C000128842434FF0E0235A6100229A610122BE
:1016D0001A6100BF4FF0E022116901F001021AB156
:1016E00001F48032002AF5D000224FF0E0231A6185
:1016F0009A6100BFE0E70000280000202A000020D7
:1017000010B586B0044601210420FFF70DFB01212E
:101710008803FFF709FB18208DF817004FF40070BD
:10172000ADF8140003208DF8160005A96B48FFF7EB
:101730003FF804208DF817000002ADF814000320D4
:101740008DF8160005A96548FFF732F801940020CE
:10175000ADF810000C20ADF80E000020ADF80C0024
:10176000ADF80A00ADF8080001A95D48FFF783FB5A
:1017700001215B48FFF70BFC012240F2255158483C
:10178000FFF711FC25208DF8000001208DF80300E3
:1017900000208DF8010002208DF802006846FEF757
:1017A0003EFF06B010BD10B586B0044601210420EE
:1017B000FFF7BAFA01214804FFF7C3FA18208DF8A1
:1017C00017000420ADF8140003208DF8160005A9B9
:1017D0004248FEF7EDFF04208DF817000820ADF811
:1017E000140003208DF8160005A93C48FEF7E0FF21
:1017F00001940020ADF810000C20ADF80E00002080
:10180000ADF80C00ADF80A00ADF8080001A93548A4
:10181000FFF731FB01213348FFF7B9FB012240F20A
:1018200025513048FFF7BFFB26208DF8000001202E
:101830008DF8030000208DF801008DF80200684645
:10184000FEF7EDFE06B010BD2DE9F04107460C464F
:10185000154600260DE014F8011B3846FFF704FC7E
:1018600000BF40213846FFF76DFC0028F9D0701CFE
:1018700086B2AE42EFDBBDE8F0810FB430B5CBB03D
:10188000054601AC50A800904FF4947101A8009B4C
:101890004F9A03F083FA002000900BE014F8011B2C
:1018A0002846FFF7E1FB00BF40212846FFF74AFC2E
:1018B0000028F9D020780028F0D14BB030BC5DF87A
:1018C00014FB10B540F225510548FFF751FC18B143
:1018D00020210348FFF743FC10BD00000008014031
:1018E000003801400044004010B56448006820F40E
:1018F0007040624908600846006840F44050086043
:1019000000205F4908601420FFF7D4FE01205D49E4
:10191000C1F8AC011E20FFF7AFFE10BD10B50024CA
:101920005648006820F47040544908600846006832
:1019300040F40040086004E0601CC4B20120FFF7DE
:101940009BFE4F488038006808B1642CF4DB642C9F
:1019500001DB012010BD002404E0601CC4B20120A2
:10196000FFF78AFE46488038006808B9642CF4DB2B
:10197000642C01DB0120EDE70020EBE710B500242B
:1019800004E0601CC4B20120FFF776FE3C488038BA
:10199000006808B1642CF4DB002404E0601CC4B2CD
:1019A0000120FFF769FE36488038006808B9642CCA
:1019B000F4DB2820FFF760FE31488038006808B16A
:1019C000012010BD0020FCE770B50024002506E0D2
:1019D0006006040EFFF7D2FF0443681CC5B2082D51
:1019E000F6DB204670BD7CB505460E46FFF77CFF52
:1019F000FFF794FFF8B9002405E0FFF7E5FF0DF8C5
:101A00000400601CC4B2052CF7DB9DF800009DF8B3
:101A1000011008449DF8021008449DF80310084482
:101A20009DF80410884208D19DF8000030709DF8A0
:101A30000200287001E001207CBD0020FCE708B511
:101A400001210420FFF770F94FF40060ADF80000A9
:101A500010208DF8030003208DF802006946074826
:101A6000001FFEF7A5FE4FF400610448001FFEF7BB
:101A70004CFFFFF739FFFFF751FF08BD0408014095
:101A8000AC0121420000214270B504460E462EB141
:101A90004FF40041FE48FEF738FF04E04FF40041E8
:101AA000FB48FEF734FF4FF48071FA48FEF72FFF32
:101AB00000251BE04FF48051F548FEF728FF04F0A5
:101AC000800028B14FF40051F148FEF71EFF04E0FA
:101AD0004FF40051EE48FEF71AFF4FF48051EC48E6
:101AE000FEF713FF6006040E681CC5B2082DE1DB8B
:101AF0004FF48071E748FEF708FF4FF40041E448D7
:101B0000FEF703FF70BD70B504460D4605F1B00148
:101B1000C8B20021FFF7B8FF102141EA14100021DC
:101B2000FFF7B2FF04F00F0141F001000021FFF7C1
:101B3000ABFF70BD10B500218D20FFF7A5FF002180
:101B40001420FFF7A1FF0021AF20FFF79DFF10BD7C
:101B500010B500218D20FFF797FF00211020FFF71F
:101B600093FF0021AE20FFF78FFF10BD70B500245A
:101B700019E004F1B001C8B20021FFF785FF002190
:101B80000846FFF781FF00211020FFF77DFF0025A9
:101B900005E001210020FFF777FF681CC5B2802D0A
:101BA000F7DB601CC4B2082CE3DB70BD2DE9F0410B
:101BB00007460E46904600250024A8F12000C5B235
:101BC0007F2F02DD0027B01CC6B231463846FFF732
:101BD0009AFF002408E004EB0511AF4A505C012194
:101BE000FFF752FF601CC4B2082CF4DB701CC1B2BA
:101BF0003846FFF788FF002409E004EB051108319F
:101C0000A54A505C0121FFF73FFF601CC4B2082CBD
:101C1000F3DBBDE8F08110B50246012000E050433F
:101C20000B1EA1F10104E1B2F9D110BD2DE9FF5F56
:101C3000074691461D460E9E4FF0000A002433E0F1
:101C4000281B401EC1B20A20FFF7E5FFB9FBF0F0E8
:101C50000A21B0FBF1F201FB1208BAF1000F13D117
:101C6000681EA04210DDB8F1000F0BD1B34606EBA1
:101C7000DB71491001FB0471C8B220220199FFF702
:101C800095FF0FE04FF0010AB34606EBDB714910F8
:101C900001FB0471C8B208F13001CAB20199FFF723
:101CA00085FF00BF601CC4B2AC42C9DBBDE8FF9F2A
:101CB0002DE9F04104460F46154600260EE0AA5DC8
:101CC00039462046FFF772FF04F10800C4B2782CB1
:101CD00002DD0024B81CC7B2701CC6B2A85D002883
:101CE000EDD1BDE8F0812DE9F04180460E46154664
:101CF000002731464046FFF706FF00240AE0674A06
:101D000002EB8511085D0121FFF7BEFE781CC7B20A
:101D1000601CC4B2102CF2DB701CC1B24046FFF74D
:101D2000F2FE00240CE06900491C5C4A02EB411100
:101D3000085D0121FFF7A8FE781CC7B2601CC4B281
:101D4000102CF0DBBDE8F0812DE9F05F06460F4670
:101D500090461C46DDF828A04FF0000BE11704EB7D
:101D60005171C910A4EBC10131B92046E11704EB50
:101D70005171C1F3C70506E02046E11704EB51712C
:101D8000C910491CCDB23D4615E029463046FFF743
:101D9000BAFEB1460BE059460BF1010B1AF80100EF
:101DA0000121FFF771FE09F1010000F0FF09C145B3
:101DB000F1DB681CC5B2A542E7DBBDE8F09F08B5C2
:101DC00001214FF48670FEF7AFFF4FF47040ADF87D
:101DD000000010208DF8030003208DF802006946F2
:101DE0002B48FEF7E5FC4FF48070ADF80000694623
:101DF0002848FEF7DDFC4FF470412548FEF785FDCD
:101E00004FF480712348FEF780FD4FF48041204855
:101E1000FEF77BFD6420FFF74DFC4FF480411C482A
:101E2000FEF775FD6420FFF745FC4FF4804118482C
:101E3000FEF76BFD0021AE20FFF726FE00210846CD
:101E4000FFF722FE00211020FFF71EFE0021402098
:101E5000FFF71AFE00218120FFF716FE0021CF2098
:101E6000FFF712FE0021A120FFF70EFE0021C8207F
:101E7000FFF70AFE0021A620FFF706FE0021A8209A
:101E8000FFF702FE00213F20FFF7FEFD002107E0E3
:101E9000000C014000080140A46B00082C00002049
:101EA000D320FFF7F1FD00210846FFF7EDFD0021EB
:101EB000D520FFF7E9FD00218020FFF7E5FD002197
:101EC000D920FFF7E1FD0021F120FFF7DDFD002122
:101ED000DA20FFF7D9FD00211220FFF7D5FD002100
:101EE000DB20FFF7D1FD00214020FFF7CDFD0021D1
:101EF0002020FFF7C9FD00210220FFF7C5FD0021CA
:101F00008D20FFF7C1FD00211420FFF7BDFD00214A
:101F1000A420FFF7B9FD0021A620FFF7B5FD0021A1
:101F2000AF20FFF7B1FD0021AF20FFF7ADFDFFF7B8
:101F30001DFE00210846FFF7E6FD08BD00B585B08F
:101F400001214FF40170FEF7EFFE4FF40040FEF761
:101F50004FFE2548FFF750F9002000908DF804004F
:101F60008DF805004FF460200290002003900220BD
:101F70008DF8100069461C48FFF765F901211A48E1
:101F8000FFF78DF91848FFF7ACF900BF1648FFF7C7
:101F9000ADF90028FAD11448FFF7B2F900BF124892
:101FA000FFF7B3F90028FAD105B000BD10B504461B
:101FB0000723012221460C48FFF7DDF907230222FF
:101FC00021460948FFF7D7F901210748FFF7A7F98C
:101FD00000BF02210448FFF713FB0028F9D0024894
:101FE000FFF730FA10BD00000024014008B50121C0
:101FF0000420FEF799FE3020ADF8000000208DF897
:10200000030069461F48FEF7D3FBFFF797FF08BDA3
:1020100070B50024002508E00420FFF7C7FF044442
:102020000520FFF747FB681CC5B2052DF4DB052032
:10203000B4FBF0F4B4F57A6F01D94FF47A64282038
:10204000B4FBF0F4C4F16400C0B270BD70B50024FC
:10205000002508E00520FFF7A9FF04440520FFF74D
:1020600029FB681CC5B2052DF4DB0520B4FBF0F498
:10207000B4F57A6F01D94FF47A64A408601E80B277
:1020800070BD00000008014008B501210820FEF7DE
:102090004BFE4FF4E070ADF8000010208DF8030007
:1020A00003208DF8020069460448FEF781FB4FF4D7
:1020B000E0710248FEF72BFC08BD0000000C014057
:1020C00008B501210820FEF72FFE01214148FEF747
:1020D00040FC40F60360ADF8000048208DF8030096
:1020E00069463D48FEF764FB08BD10B5044614B1CF
:1020F00001203A49087039480078002847D04FF449
:1021000000613548FEF7E7FBA8B14FF48061324823
:10211000FEF7E1FB78B102212F48FEF7DCFB50B15E
:1021200001212D48FEF7D7FB28B14FF400712A4852
:10213000FEF7D1FB58BB0A20FFF7BCFA0020274965
:1021400008704FF400612448FEF7C5FB08B9012070
:1021500010BD4FF480612048FEF7BDFB08B9022096
:10216000F6E702211C48FEF7B6FB08B90320EFE7AB
:1021700001211948FEF7AFFB08B90420E8E74FF446
:1021800000711548FEF7A7FB10BB0520E0E74FF4F0
:1021900000611148FEF79FFB012819D181020E480A
:1021A000FEF799FB012813D102210B48FEF793FBA0
:1021B00001280DD101210848FEF78DFB012807D128
:1021C00041020548FEF787FB012801D10349087049
:1021D0000020BDE700023000000C0140AC060020EA
:1021E00010B54FF4A060FEF715FAFFF72DFA4FF483
:1021F000E130FFF785FA4FF4E130FFF7D4FAFFF74B
:10220000DEFDFFF741FFFFF75BFFFFF7EFFEF9A1F0
:10221000FD48FFF732FB10BD08B50026002500275A
:102220000024FFF7DDFF02E0C820FFF743FAFFF7C5
:1022300006FC0028F8D1112200211420FFF753FDDD
:10224000122200212420FFF74EFDF0A200213420AD
:10225000FFF72EFD172200215820FFF744FD02F062
:1022600059FCFFF783FC112200211420FFF73BFDEE
:10227000122200212420FFF736FDE4A200213420A1
:10228000FFF716FD132200215420FFF72CFD142226
:1022900000216420FFF727FD112203211420FFF7FE
:1022A00022FD122203212420FFF71DFD1522032108
:1022B0003420FFF718FD162203214420FFF713FDF9
:1022C000172203215420FFF70EFDD2A1CE48FFF7BD
:1022D000D4FA03E04FF4FA70FFF7ECF9D4A1D6A0DA
:1022E00002F0B9FB0028F5D1DFA1C748FFF7C5FA16
:1022F00003E04FF4FA70FFF7DDF900F062FB00280D
:10230000F7D100F095FEFFF731FC00221146104690
:10231000FFF7E9FC022200211220FFF7E4FC012272
:1023200002210020FFF7DFFC022211461220FFF7F6
:10233000DAFC052204210020FFF7D5FC0622042147
:102340001220FFF7D0FC182206210020FFF7CBFC5B
:10235000192206211220FFF7C6FC092202215A2069
:10236000FFF7C1FC0A2202216A20FFF7BCFC002013
:10237000C0490873491C481EFFF735FBFFF766FE8E
:10238000BC494880FFF744FEBA4908710F204871E4
:10239000232088714B20C8714FF4FA70488128209F
:1023A0000872F4E10020FFF7A0FE0746012F06D0D7
:1023B000022F0DD0032F1ED0042F08D14FE0AD48BF
:1023C000007B08B9012000E00020AA4908737AE0E8
:1023D000A848007B012808D1A648C07B08B9012085
:1023E00000E00020A349C87304E0601CC4B2042CC0
:1023F00000DD002467E09F48007B012808D19D484C
:10240000807B08B9012000E000209A49887325E00C
:102410002CB998484079401C964948711EE0012C1F
:1024200005D194488079401C9249887116E0022CAD
:1024300005D19048C079401C8E49C8710EE0032C2C
:1024400005D18C48007A401C8A49087206E0042CA9
:1024500004D1884840890A308649488133E085485C
:10246000007B012808D18348407B08B9012000E0A7
:1024700000208049487325E02CB97E484079401EF1
:102480007C4948711EE0012C05D17A488079401EB4
:102490007849887116E0022C05D17648C079401E33
:1024A0007449C8710EE0032C05D17248007A401EB1
:1024B0007049087206E0042C04D16E4840890A383D
:1024C0006C49488100BF00BF2CB96BA204215A207F
:1024D000FFF7EEFB1EE0012C05D168A204215A2073
:1024E000FFF7E6FB16E0022C05D165A204215A2075
:1024F000FFF7DEFB0EE0032C05D162A204215A2077
:10250000FFF7D6FB06E0042C04D15FA204215A2079
:10251000FFF7CEFB5749491C481EFFF764FAFFF747
:1025200095FD54494880FFF773FD5249087110200A
:10253000009008460278022300212820FFF776FB4E
:10254000102000904B484278022319462820FFF7BC
:102550006DFB1020009047480279022304212820B7
:10256000FFF764FB102000904248428803230621B5
:102570002820FFF75BFB102000903E4842790223A1
:1025800000213C20FFF752FB2D2200214C20FFF7B9
:102590000DFB10200090374882790223002154203F
:1025A000FFF744FB102000903248C27902231946FD
:1025B0004620FFF73BFB102000902E48027A0223B2
:1025C00004214620FFF732FB102000902948428961
:1025D000032306214620FFF729FB2648007B40B94C
:1025E000092202215A20FFF77EFB0A2202216A20DB
:1025F0004CE081E020486172647761726520696E09
:102600006974204F4B0D0A00003801405749464974
:1026100000000000436F6E6E656374204D5154548A
:1026200073205365727665722E2E2E0D0A000000FF
:10263000434F4E4E4543540041542B43495053544D
:102640004152543D22544350222C226D71747473B4
:102650002E6865636C6F7564732E636F6D222C3109
:102660003838330D0A0000004E45545F4F4B0D0AB9
:1026700000000000F4060020545F4C00545F480046
:10268000485F48004C5F48004D5F4800FFF72BFB58
:102690003F4800783E494979884203DA01203C49A5
:1026A000C87302E000203A49C873394800793849B4
:1026B000097A884203DA01203549487302E0002094
:1026C00033494873324800783149897988420BDCB4
:1026D0002F4840782E49C979884205DC2C4840882B
:1026E0002B494989884203DD0120294988730DE07F
:1026F00000202749887309E00B2202215A20FFF7A6
:10270000F2FA0C2202216A20FFF7EDFA2048407B02
:10271000012804D101021F48FEF7F7F804E04FF446
:1027200080711C48FEF7F3F81948807B012804D11A
:1027300080211848FEF7E9F803E080211548FEF7EC
:10274000E6F81348C07B012804D140211148FEF768
:10275000DCF803E040210F48FEF7D9F8701C80B286
:1027600006461E2808DB0CA11048FFF786F800F08B
:10277000F1FB002602F050F9002002F0A9F905460D
:1027800015B1284600F07FFC0A20FEF793FF09E60A
:10279000F4060020000C01404F6E654E65745F53D7
:1027A000656E64446174610D0A00000000380140E8
:1027B000F0B58BB0054600260024284602F0C3FC85
:1027C000C7B20DB11C2F02DA01200BB0F0BD06E03C
:1027D000A85D01A988550020A855701CC6B2BE424C
:1027E000F6DB002001A988550026002455E001A849
:1027F000805D2B2810D008DC202814D023282ED070
:10280000252825D026283FD130E02F2812D03D287A
:1028100033D03F2838D114E02819FAA102F0B2FCD5
:10282000E01CC4B236E02819F7A102F0ABFCE01CB2
:10283000C4B22FE02819F5A102F0A4FCE01CC4B238
:1028400028E02819F2A102F09DFCE01CC4B221E0AE
:102850002819F0A102F096FCE01CC4B21AE0281975
:10286000EDA102F08FFCE01CC4B213E02819EBA12B
:1028700002F088FCE01CC4B20CE02819E8A102F0C8
:1028800081FCE01CC4B205E001A8805D2855601CF5
:10289000C4B200BF00BF701CC6B2BE42A7DB00209E
:1028A000285500BF91E72DE9F04FC9B005460C4609
:1028B00016461F460DF5A47898E8000F00204890B2
:1028C00055B14CB1D748864206D32FB1B9F1000FAC
:1028D00002D0BAF1780F03DA012049B0BDE8F08FD9
:1028E000402118A802F0C1FC384602F02CFC0590EB
:1028F0003B4648AA4021009018A801F0C5F848219D
:1029000006A802F0B2FCBBF1000F09D0C6A0334606
:10291000C7A248218DE8310006A802F06FFA09E04D
:10292000C1A03346C8A248218DE81101039506A82D
:1029300002F064FA402128A802F097FC06A802F0F1
:1029400002FC059018A802F0FEFB049028A8009055
:1029500006AA18A8DDE9041300F042FF0020489001
:10296000402138A802F081FC28A802F0ECFB059079
:1029700028AB48AA4021009038A800F0E5FF38A80D
:10298000FFF716FFBBF1000F0CD038A8A6A12B460D
:10299000B5A2CDE90046CDE902105146484602F005
:1029A0002DFA0CE038A8A0A12B46BD4ACDE901863E
:1029B0000094CDE903105146484602F01FFA00206A
:1029C0008BE730B5B3B000202F903090319032902B
:1029D0000125A02107AAB3A3CDE90032CDE9021059
:1029E000B2A3BE4ABEA1C1A0FFF75DFF07A8BCA36A
:1029F000ACA2C1A10090CC48FEF73FFF2FA8002158
:102A000002910391CDE90410084601210B02A5A211
:102A1000CDE9001007A9B2A001F097F9002842D132
:102A2000309A91B22F9802F03CF8FA2002F050F858
:102A30000446002C33D0204601F052F902282ED152
:102A4000204601F0E7FA062823D2DFE800F0030968
:102A50000E13181DB5A1B448FEF70FFF00251DE0A9
:102A6000B7A1B148FEF709FF18E0BCA1AE48FEF7D8
:102A700004FF13E0C2A1AC48FEF7FFFE0EE0C8A1C0
:102A8000A948FEF7FAFE09E0CEA1A748FEF7F5FE39
:102A900004E0D7A1A448FEF7F0FE00BF00BF2FA8B6
:102AA00001F0D6F803E0D9A19F48FEF7E6FE2846DC
:102AB00033B030BD10B5B2B00446C821684602F04C
:102AC000D4FBDBA1204602F01AFBC821684602F0C5
:102AD000CCFBDC480278DCA1684602F079F9694653
:102AE000204602F04FFBC821684602F0BEFBD548E5
:102AF0004278D9A1684602F06BF96946204602F097
:102B000041FBC821684602F0B0FBCE484288D6A1FE
:102B1000684602F05DF96946204602F033FBC821A1
:102B2000684602F0A2FBC7480279D3A1684602F0CA
:102B30004FF96946204602F025FBC821684602F09D
:102B400094FBC0484279D0A1684602F041F9694639
:102B5000204602F017FBC821684602F086FBB94800
:102B60008279CEA1684602F033F96946204602F028
:102B700009FBB448C279CEA1684602F029F969463A
:102B8000204602F0FFFAC821684602F06EFBAD480D
:102B9000027ACCA1684602F01BF96946204602F091
:102BA000F1FAC821684602F060FBA6484289CAA132
:102BB000684602F00DF96946204602F0E3FAC821A2
:102BC000684602F052FB9F48027BC8A1684602F0AB
:102BD000FFF86946204602F0D5FAC821684602F09F
:102BE00044FB9848427BC6A1684602F0F1F869466A
:102BF000204602F0C7FAC821684602F036FB914829
:102C0000827B87E1253242002532300025324600A2
:102C10002533460025323500253233002532360073
:102C2000253344009554415D736861310000000014
:102C300025640A25730A70726F64756374732F2597
:102C4000730A25730000000025640A25730A707258
:102C50006F64756374732F25732F6465766963657C
:102C6000732F25730A25730076657273696F6E3D45
:102C70002573267265733D70726F64756374732576
:102C800025324625732665743D2564266D65746876
:102C90006F643D2573267369676E3D2573000000E0
:102CA0002C7300087A6E6A730000000079644D741A
:102CB00046776D765037553772514E2F7154396CB7
:102CC0006F3730487956766C505A4E6E35792B4AAC
:102CD00058306D527331303D0000000000CF9D74BC
:102CE000756B3959557138493435000032303138F7
:102CF0002D31302D333100004F6E654E45545F4409
:102D000065764C696E6B0D0A4E414D453A20257330
:102D10002C0950524F49443A2025732C094B4559F0
:102D20003A25730D0A0000000038014054697073A1
:102D30003A09C1ACBDD3B3C9B9A60D0A0000000061
:102D40005741524E3A09C1ACBDD3CAA7B0DCA3BAB1
:102D5000D0ADD2E9B4EDCEF30D0A00005741524E8A
:102D60003A09C1ACBDD3CAA7B0DCA3BAB7C7B7A8EC
:102D7000B5C4636C69656E7469640D0A0000000077
:102D80005741524E3A09C1ACBDD3CAA7B0DCA3BA71
:102D9000B7FECEF1C6F7CAA7B0DC0D0A00000000EE
:102DA0005741524E3A09C1ACBDD3CAA7B0DCA3BA51
:102DB000D3C3BBA7C3FBBBF2C3DCC2EBB4EDCEF302
:102DC0000D0A00005741524E3A09C1ACBDD3CAA703
:102DD000B0DCA3BAB7C7B7A8C1B4BDD328B1C8C8BF
:102DE000E7746F6B656EB7C7B7A8290D0A000000BE
:102DF0004552523A09C1ACBDD3CAA7B0DCA3BACE82
:102E0000B4D6AAB4EDCEF30D0A0000005741524EDD
:102E10003A094D5154545F5061636B6574436F6E52
:102E20006E656374204661696C65640D0A0000007C
:102E30007B226964223A3132332C226470223A7B3D
:102E400000000000F40600202254223A5B7B227628
:102E5000223A25647D5D2C002248223A5B7B227653
:102E6000223A25647D5D2C00224D223A5B7B22763E
:102E7000223A25647D5D2C00224C223A5B7B22762F
:102E8000223A25647D5D2C0022545F6C223A5B7BE4
:102E90002276223A25647D5D2C00000022545F6872
:102EA000223A5B7B2276223A25647D5D2C0000006D
:102EB00022485F79223A5B7B2276223A25647D5D47
:102EC0002C000000224C5F79223A5B7B2276223A6A
:102ED00025647D5D2C000000224D5F79223A5B7BEA
:102EE0002276223A25647D5D2C000000224D6F641D
:102EF00065223A5B7B2276223A25647D5D2C0000B8
:102F0000224C6564223A5B7B2276223A25647D5D01
:102F10002C000000EBA1684601F05AFF69462046EC
:102F200002F030F9C821684602F09FF9EA48C27BF6
:102F3000EAA1684601F04CFF6946204602F022F9FA
:102F4000EAA1204602F01EF9204602F0FCF8C0B2C9
:102F500032B010BD30B5C5B00020419042904390D2
:102F6000449000240025E2A1E948FEF786FC4FF4D6
:102F7000807101A802F079F901A8FFF79BFD0446D2
:102F8000002C28D041A800232246AFF2E82100906F
:102F9000AFF2B42001F02FF9C8B908E001A8415DF3
:102FA000429A501C429041988154681C05B2A54237
:102FB000F4DB429A91B2419801F073FDD5A1D44857
:102FC000429AFEF75AFC41A800F042FE03E0D5A168
:102FD000CF48FEF752FC45B030BD70B588B005460D
:102FE0000C460020049005900690079023462A4640
:102FF000D4A1C748FEF741FC204602F0A4F80646DB
:1030000004A80121002200923346CDE9012103905A
:10301000224629460A2001F00CF838B9059A91B2E7
:10302000049801F03EFD04A800F012FE08B070BD47
:1030300000B595B00020119012901390149003A841
:103040000290AFF2A030AFF26833C6A238210090F0
:1030500003A801F0D3FE03AAC7A1AD48FEF70DFCFB
:1030600011A8012302AA00210090142001F0CDF93B
:1030700038B9129A91B2119801F013FD11A800F01D
:10308000E7FD15B000BD2DE9F043A9B08146002051
:103090002890279026902590249000278046002590
:1030A0000024484600F01CFE0746032F04D0042FDE
:1030B00046D0092F5BD14CE0B54824A925AA28ABFE
:1030C000CDE90021029026AA27A9484601F0E1FA9D
:1030D0008046B8F1000F32D10026BDF8940028993F
:1030E000CDE90010BDF89830AAA18948279AFEF7CB
:1030F000C4FBB7A1279801F0F0FF0646F6B12F21D7
:10310000304601F0CEFF0646761C2422314603A845
:1031100002F044F800208DF8300003A8AFF27C41A3
:10312000AFF24443ADA2CDE9001050210DA801F04B
:1031300065FEB1A10DA8FFF750FF00BF00BF00BFA3
:10314000484601F0A6FB18B9ADA17148FEF795FB02
:1031500010E0484601F0D8F920B9B1A16C48FEF75B
:103160008CFB03E0B5A16A48FEF787FB02E04FF055
:10317000FF3800BF00BF01F04FFC08F1010010B99B
:1031800029B0BDE8F0833A21289801F08AFF05466E
:10319000002D70D06D1C05E015F8012B2046641C35
:1031A00021A90A542878302802DB28783928F3DD51
:1031B000002021A9085521A801F066FF0446A6A118
:1031C000289801F08AFF58B1012C03D1012042490F
:1031D000087368E0002C66D100203F49087362E064
:1031E000A0A1289801F079FF70B13B48007B01282D
:1031F00059D1012C02D13849487354E0002C52D1E6
:103200000020354948734EE099A1289801F065FFE8
:1032100070B13148007B012845D1012C02D12E49E3
:10322000887340E0002C3ED100202B4988733AE09F
:1032300091A1289801F051FF68B12748007B01282F
:1032400031D1012C02D12449C8732CE01CBB0020D1
:103250002149C87327E08AA1289801F03EFF10B1E8
:103260001D494C711FE088A1289801F036FF18B164
:1032700019498C7117E018E085A1289801F02DFFFD
:1032800010B11549CC710EE083A1289801F025FFFB
:1032900010B111490C7206E081A1289801F01DFFC0
:1032A00008B10D494C8101F0B7FB0F2F01D0032F5E
:1032B00005D1279801F04BFD289801F048FD00BF8B
:1032C0005EE70000224673223A5B7B2276223A2593
:1032D000647D5D2C00000000F4060020224A72226A
:1032E0003A5B7B2276223A25647D5D007D7D00007D
:1032F000546970733A094F6E654E65745F53656E1D
:1033000064446174612D4D5154540D0A0000000055
:103310000038014053656E6420256420427974654D
:10332000730D0A005741524E3A094544505F4E65AD
:1033300077427566666572204661696C65640D0A40
:10334000000000005075626C69736820546F7069EA
:10335000633A2025732C204D73673A2025730D0A9C
:1033600000000000247379732F25732F25732F63BA
:103370006D642F23000000005375627363726962ED
:103380006520546F7069633A2025730D0A000000B0
:10339000AE060020746F7069633A2025732C207488
:1033A0006F7069635F6C656E3A2025642C207061D4
:1033B000796C6F61643A2025732C207061796C6F91
:1033C00061645F6C656E3A2025640D0A00000000A0
:1033D000726571756573742F000000002473797332
:1033E0002F25732F25732F636D642F726573706F94
:1033F0006E73652F257300006F6A626B000000001A
:10340000546970733A094D515454205075626C6977
:1034100073682053656E64204F4B0D0A0000000056
:10342000546970733A094D51545420537562736353
:1034300072696265204F4B0D0A0000005469707379
:103440003A094D5154542053756273637269626531
:10345000204572720D0A00006D6F64655F666C61D5
:10346000670000006C65645F666C616700000000C7
:1034700066735F666C6167006A725F666C616700A5
:1034800074656D706C00000074656D7068000000FC
:1034900068756D69000000006C73656E7300000054
:1034A0006D713200F0B50446142C06DA01EA02050B
:1034B00023EA010685EA060019E0282C04DA81EAED
:1034C000020787EA030012E03C2C0ADA01EA02054F
:1034D00001EA030787EA050602EA030787EA06000E
:1034E00005E0502C03DA81EA020787EA0300F0BD09
:1034F0000146142901DAFE480AE0282901DAFD48CC
:1035000006E03C2901DAFC4802E0502900DAFB48D9
:103510007047F0B5024601209040441EE54301EAA1
:10352000050020FA02F601EA0400C2F1200C00FABC
:103530000CF746EA07031846F0BDF0B50246C2F1A3
:10354000200C012000FA0CF0441EE54301EA0400BF
:1035500000FA02F601EA0500C2F1200C20FA0CF78D
:1035600046EA07031846F0BD2DE9F04FDDB00746E7
:103570008A4615460AF1080909F101094FEACA000D
:103580005B9048464FEAE97109EB91618E1148461C
:103590004FEAE97109EB91618911A9EB81115C9105
:1035A0005C98002800DD761C5C98C0F140008144E6
:1035B000D04604E0002007F8080008F10108B8EB45
:1035C000861FF7DB802007F80A000121C1EB861176
:1035D0005B9878545B98C0F307200221C1EB8611F9
:1035E00078545B98C0F307400321C1EB86117854EF
:1035F0005B98000E0421C1EB86117854C0485690A8
:10360000C0485790BE48C0435890BE48C0435990E8
:10361000BD485A904FF00008A5E0002452E0102C5D
:1036200032D24FEA881000EB8400385C000601A912
:1036300041F824004FEA881000EB8400401C385CFD
:1036400051F824104FF4803202FB001001A941F818
:1036500024004FEA881000EB8400801C385C51F88D
:103660002410121202FB001001A941F824004FEAB5
:10367000881000EB8400C01C385C51F8241008440A
:1036800001A941F824001CE0502C1AD2E01E01AA26
:1036900052F82000A4F1080201AB53F82220504058
:1036A000A4F10E0253F822205040A4F1100253F866
:1036B000222080EA02010120FFF73FFF01A941F823
:1036C0002400641C502CAAD35698559057985490B7
:1036D00058985390599852905A98519000242AE043
:1036E00005205599FFF729FF83462046529B539AA0
:1036F0005499FFF7D7FE5844009051990098084418
:1037000000902046FFF7F4FE00990844009001A8BD
:1037100050F8241000980844009052985190539803
:1037200052901E205499FFF708FF539055985490DB
:1037300000985590641C502CD2D356995598084443
:10374000569057995498084457905899539808445C
:10375000589059995298084459905A995198084448
:103760005A9008F10108B045FFF657AF5698E87037
:103770005698000AA8705698000C68705698000E6B
:1037800028705798E8715798000AA8715798000C4C
:1037900068715798000E28715898E8725898000A76
:1037A000A8725898000C68725898000E28725998A0
:1037B000E8735998000AA8735998000C68735998CF
:1037C000000E28735A98E8745A98000AA8745A98F8
:1037D000000C68745A98000E28745DB0BDE8F08F34
:1037E0002DE9F04FADF58E5D07460E4692469846A0
:1037F0000DF58050D0F8E49140254FF0360B5C2158
:10380000C0F8BC11002405E0002041F27C1169449D
:103810000855641C402CF7DBAE421FD0AE4210DDD1
:103820004A4631463846FFF79FFE002406E019F865
:10383000040041F27C1169440855641C142CF6DB29
:1038400016E0AE4214DA002405E0385D41F27C1146
:1038500069440855641CB442F7DB09E0002405E024
:10386000385D41F27C1169440855641CAC42F7DBB9
:1038700000240AE041F27C106844005D80EA0B00FD
:1038800041F23C1169440855641C402CF2DB0024D1
:1038900006E041F23C106844005D1FA90855641C15
:1038A000402CF6DB002406E01AF804101FAA04F1ED
:1038B00040001154641C4445F6DB08EB05014A4600
:1038C0001FA8FFF751FE00240DE041F27C1169446E
:1038D000095D0DF58050D0F8BC01414041F2FC0279
:1038E0006A441155641C402CEFDB002415E00000F5
:1038F0009979825AA1EBD96EDCBC1B8FD6C162CA02
:103900000123456789ABCDEFF0E1D2C341F2FC0062
:103910006844005D0AA90855641C402CF6DB0024AD
:1039200006E019F804100AAA04F140001154641CBE
:10393000142CF6DB4A4605F114010AA8FFF714FE21
:103940000DF58E5DBDE8F08F2DE9F04F07468946F5
:10395000099C00250026AC46A846AA4600211CB9B1
:1039600000201060BDE8F08F0320B4FBF0F04FF0B2
:10397000030BB4FBFBFE0BFB1E4BBBF1000F02D095
:103980004FF0010B01E04FF0000B00EB0B06B6F11E
:10399000804F05D34FF0FF3010606FF02900E1E752
:1039A000B600701C814500D327B9701C10606FF001
:1039B0002900D7E70320B4FBF0F000EB4006002518
:1039C000394629E013F801CB13F8018B13F801AB4A
:1039D00087484FEA9C0B10F80B0001F8010B4FEAE7
:1039E0000C1000EB281000F03F00DFF804B21BF8C9
:1039F000000001F8010B4FEA880000EBAA1000F06C
:103A00003F001BF8000001F8010B0AF03F001BF813
:103A1000000001F8010BED1CB542D3D3A5422DD215
:103A200013F801CB681CA04202D213F8010B00E08E
:103A3000002080466E48CCF3850B10F80B0001F88F
:103A4000010B4FEA0C1000EB281000F03F00DFF8EC
:103A5000A0B11BF8000001F8010B681CA04207D2BE
:103A60003F2000EA88001BF8000001F8010B02E08B
:103A70003D2001F8010B3D2001F8010BC81B10602F
:103A80000020087000BF6DE72DE9F0470746894622
:103A90009046DDF820C000210022002400260025E9
:103AA000002004460246014645E0002601E0491C8C
:103AB000761C614502D2585C2028F8D0614500D1BF
:103AC0003BE0ACEB0100022807D3585C0D2804D181
:103AD000481C185C0A2800D12CE0585C0A2800D148
:103AE00028E01EB16FF02B00BDE8F087585C3D2840
:103AF00006D1601C0446022802D96FF02B00F3E7C0
:103B0000585C7F2806DC585CDFF8E8A01AF8000053
:103B10007F2802D16FF02B00E6E7585CDFF8D4A0D5
:103B20001AF80000402803DA14B16FF02B00DBE72D
:103B3000521C00BF491C6145B7D300BF1AB9002011
:103B4000C8F80000D0E7D00800EB40004FEA400A78
:103B500002F0070000EB40004000C01D0AEBD0025D
:103B6000121B0FB1914504D2C8F800206FF0290054
:103B7000BAE703240020064602463D4631E01878A5
:103B80000D2805D018780A2802D01878202800D1EE
:103B900025E01878DFF85CA01AF80000402801D171
:103BA000012000E00020241A1878DFF848A01AF855
:103BB000000066F39F100646501C024604280DD1F3
:103BC000002214B1300C05F8010B012C02D9300A87
:103BD00005F8010B022C01D905F8016B00BF491E45
:103BE0005B1C0029CBD1E81BC8F8000000207BE754
:103BF00094710008D471000870B504460E46002583
:103C0000206898B901202073304601F071F82060D7
:103C10002068E0B100206060A66003E00020216819
:103C200048556D1CA068A842F8D810E00220207307
:103C300003E00020216848556D1CA068A842F8D810
:103C400000206060A068B04201D20020206070BDFA
:103C500010B50446207B012802D1206801F077F8D6
:103C6000002020606060A060207310BD0246002329
:103C700001230DE002F07F000870D2092AB1087814
:103C800040F080000870491C01E0184670475B1C3A
:103C9000042BEFDD4FF0FF30F8E7F0B504460D469A
:103CA0002646012300201060002114E0775C07F015
:103CB0007F07106807FB03001060705C00F0800055
:103CC00008B9481CF0BDDB01B3F5001F02D36FF04B
:103CD0000100F7E7491CA942E8DB4FF0FF30F1E7AC
:103CE000F8B50446FF2720780511012D01DB0E2DC4
:103CF00001DD3846F8BD032D24D1002000906A462E
:103D00000421601CFFF7C9FF2044461C00980228CC
:103D100003D3207800F0010008B1FF20EAE77078B3
:103D2000317840EA0120801C0099884201D9FF20A7
:103D3000E0E7F8A1B01C01F0D0F908B10F2700E0CE
:103D4000032700E02F463846D4E72DE9FF4F83B024
:103D500082468B469146159C0025002002900F2735
:103D60000190484601F0EFF90FFA80F8B9F1000F21
:103D700003D1012007B0BDE8F08F08F102003844FC
:103D800087B2109808B145F00205129878B145F055
:103D90000405129801F0D7F9C0B20290139801F00F
:103DA000D2F901460298001D0844384487B21198A0
:103DB00020B1012804D0022808D104E000BF07E0A8
:103DC00045F00C0504E045F0140501E00220D1E7C0
:103DD00000BF149808B145F02405BAF1000F02D0D5
:103DE000BBF1000F01D10320C4E745F0C0055046E8
:103DF00001F0A9F90646584601F0A5F93044001D26
:103E0000384487B239462046FFF7F6FE206808B9E5
:103E10000420AFE73946206801F005FA10216268F6
:103E2000501C606020688154D4E90023D118781FA9
:103E3000FFF71CFF00B201900198002804DA204629
:103E4000FFF706FF052095E7616801980844606068
:103E500000216268501C60602068815404216268FF
:103E6000501C6060206881544D216268501C606065
:103E70002068815451216268501C60602068815420
:103E800054216268501C6060206881546268501C34
:103E900060602068815404216268501C6060206862
:103EA00081546168481C6060206845540698010A86
:103EB0006268501C6060206881540698C1B26268D4
:103EC000501C606020688154C8F307216268501C50
:103ED0006060206881546268501C6060206800F84F
:103EE0000280D4E9001288184246494601F0E3F8FE
:103EF00060684044606005F00400B8B30026139881
:103F000008B986A01390129801F01DF986B2310A03
:103F10006268501C6060206881546268501C606058
:103F200020688654D4E9001288183246129901F0AC
:103F3000C2F8606830446060139801F004F986B2FA
:103F4000310A6268501C6060206881546268501CAD
:103F5000606020688654D4E90012881832461399AC
:103F600001F0A9F860683044606000BF05F080008F
:103F7000C8B1504601F0E7F886B2310A6268501CB9
:103F80006060206881546268501C606020688654BC
:103F9000D4E9001288183246514601F08CF8606866
:103FA0003044606000BF05F04000C8B1584601F0E1
:103FB000CAF886B2310A6268501C60602068815479
:103FC0006268501C606020688654D4E9001288182A
:103FD0003246594601F06FF860683044606000BFB7
:103FE0000020C7E610B5044602212046FFF704FE74
:103FF000206808B9012010BDE0216268501C606093
:104000002068815400216268501C606020688154DF
:104010000020F0E701464878022801D001207047CF
:10402000887810B18878012801D1C878F7E7FF2097
:10403000F5E72DE9FF4F83B0834617469946139C59
:10404000002500260020029001908046BBF1000F61
:1040500003D1012007B0BDE8F08F00260AE00498E4
:10406000805D232803D00498805D2B2801D1022095
:10407000F0E7761C0498805D0028F0D148F0300805
:10408000119808B148F0010806EB0900851C10984A
:1040900020B1012804D002280AD105E000BF09E0C0
:1040A00048F00208AD1C05E048F00408AD1C01E032
:1040B0000320CFE700BF67B33878022821D14FF043
:1040C000000A00BF50460AF1010A385C7D28F9D188
:1040D000AAF1030A0AF1070002900298A9EB000A6C
:1040E000E81CA0EB0A012046FFF786FD206808B90E
:1040F0000420AFE7EA1CA2EB0A01206801F093F864
:104100001FE0691D2046FFF777FD206840B90420B5
:10411000A0E70AE02463726571000000000000005F
:10412000691D206801F07FF80BE0691D2046FFF74C
:1041300063FD206808B904208CE7691D206801F040
:1041400072F86168481C6060206800F80180D4E95A
:10415000000281182846FFF789FD01900198002888
:1041600004DA2046FFF774FD052073E761680198C3
:1041700008446060C6F307216268501C60602068D4
:1041800081546268501C606020688654D4E9001233
:1041900088183246049900F08EFF606830446060F1
:1041A000109860B14FEA1B216268501C6060206863
:1041B00081546268501C6060206800F802B0C7B18A
:1041C000387802280BD1D4E9001288183946029AAF
:1041D00000F0E4FF616802980844606009E0D4E9F7
:1041E000001288184A46394600F0D8FF60684844F3
:1041F000606000202EE72DE9F04190B004460D46A6
:1042000016469846169F2346F7A2302104A800952B
:1042100000F0F4FD01200021CDE9000133460A46FB
:1042200004A9CDE902070A20FFF703FF18B1012016
:1042300010B0BDE8F0810020FAE72DE9F04F85B01D
:1042400080460D4691460120049000270026002458
:104250004FF0000A404600F076FF00F10D0B584683
:1042600000F046FD07461FB9049805B0BDE8F08F81
:104270004246E3A1384600F0ABFD384600F063FF4C
:10428000C6B2F01D00EB050AAAEB050000F030FDF8
:10429000044624B9384600F05AFD0498E5E70220A8
:1042A000207000206070A67032463946E01C00F095
:1042B00075FF290EF01C2154C5F30741301D215410
:1042C000C5F30721701D2154B01D25540120002184
:1042D000CDE9000153462246CDA1CDE902090A20CD
:1042E000FFF7A7FE08B900200490384600F02FFD24
:1042F000204600F02CFD0498B7E72DE9F8438046EE
:104300000C4615461E462F2108F1060000F0C9FE96
:1043100007460020009017B90120BDE8F8837F1CF4
:104320006A46042108F10100FFF7B7FC252000F0E0
:10433000DFFC2060206808B90220EEE72521206814
:1043400000F071FF24223946206800F027FF24374F
:1043500000982C3830803188481C00F0C9FC286057
:10436000286820B9206800F0F2FC0320D5E73288E5
:10437000511C286800F057FF32883946286800F041
:104380000DFF0020C9E72DE9FF5F07460D46904667
:10439000384600F0D8FE86B2284600F0D4FE1FFA58
:1043A00080FA4FF00009F01D00F0A2FC04461CB991
:1043B000012004B0BDE8F09FF11D204600F033FF5E
:1043C0009CA0016821608088A08032463946204642
:1043D00000F071FE284600F0B6FE83460120002161
:1043E00000915B462A46CDE90208019121460A2048
:1043F000FFF71FFE10B94FF0000901E04FF001096F
:10440000204600F0A4FC4846D3E72DE9FF5F804634
:10441000174699460E9C0026B246B3460025B8F1D1
:10442000000F03D1012004B0BDE8F09F0BE057F866
:10443000250008B90220F6E757F8250000F083FEB2
:104440000644681CC5B24D45F1DB09EB4900801CF0
:1044500000EB060A0AF105012046FFF7CDFB2068B4
:1044600008B90320DFE782216268501C6060206881
:104470008154D4E9000281185046FFF7F7FB0FFA88
:1044800080FBBBF1000F04DA2046FFF7E1FB0420BC
:10449000C9E76068584460604FEA18216268501CA0
:1044A0006060206881546268501C6060206800F879
:1044B0000280002524E057F8250000F044FE06465F
:1044C000C6F307216268501C6060206881546268EE
:1044D000501C606020688654D4E90023D01857F837
:1044E0002510324600F0E7FD6068304460600198B6
:1044F000C1B26268501C606020688154681CC5B2FB
:104500004D45D8DB00208EE70146FF208A78A2B90E
:10451000CA78142A11D10A7932B1012A05D0022AA7
:1045200004D0802A06D103E000BF00BF002003E0D2
:10453000012001E0022000BF00BF70472DE9F05FBD
:1045400080460F4691461C460026B246B3460025DB
:10455000B8F1000F02D10120BDE8F09F0BE057F841
:10456000250008B90220F7E757F8250000F0EBFD19
:104570000644681CC5B24D45F1DB022000EB490042
:1045800000EB060A0AF105012046FFF735FB20681B
:1045900008B90320E0E7A2216268501C606020682F
:1045A0008154D4E9000281185046FFF75FFB0FFAEF
:1045B00080FBBBF1000F04DA2046FFF749FB042023
:1045C000CAE76068584460604FEA18216268501C6E
:1045D0006060206881546268501C6060206800F848
:1045E0000280002548E00000247379732F25732F83
:1045F00025732F64702F706F73742F6A736F6E0042
:104600007B2264735F6964223A222573227D000055
:10461000247379732F376255643932344931762FD8
:1046200054455354312F64702F706F73742F6A7315
:104630006F6E000024637273702F000057F825001E
:1046400000F081FD0646C6F307216268501C6060D9
:10465000206881546268501C606020688654D4E9E8
:104660000023D01857F82510324600F024FD60686A
:1046700030446060681CC5B24D45DFDB00206BE74D
:10468000014601208A781AB9CA781E2A00D1002072
:1046900070472DE9FC5F81460D4614461E46DDE954
:1046A0000C8B99F8000000F00F0A002001900AF02E
:1046B00008000090CAF341008BF8000001AA042111
:1046C00009F10100FFF7E9FA4844471C0198022864
:1046D00002D30AF0010010B1FF20BDE8FC9F7878FA
:1046E000397840EA012020802088801C0199884286
:1046F00001D9FF20F1E7AFF2E451B81C00F0EDFC66
:1047000008B10F20E9E79BF8000020B101283DD057
:10471000022877D13BE0009808B1FF20DDE721882F
:10472000481C00F0E5FA2860286808B9FF20D4E7A3
:104730002288511C286800F076FD2288B91C286860
:1047400000F02CFD0198801E2188401AA8F8000076
:10475000B8F80010481C00F0CBFA3060306820B97F
:10476000286800F0F4FAFF20B7E7B8F80020511CE1
:10477000306800F058FDB8F80020B4F800C0BB1C49
:104780000CEB0301306800F009FD4FE000BF20880A
:10479000801C0199884201D9FF209EE72088C01C17
:1047A000395C2088801C385C41EA00210E98018029
:1047B0000E9808B9FF2090E72188481C00F098FA6D
:1047C0002860286808B9FF2087E72288511C2868DC
:1047D00000F029FD2288B91C286800F0DFFC019850
:1047E000001F2188401AA8F80000B8F80010481CE3
:1047F00000F07EFA3060306828B9286800F0A7FA27
:10480000FF206AE710E0B8F80020511C306800F083
:104810000AFDB8F80020B4F800C03B1D0CEB030102
:10482000306800F0BBFC01E0FF2056E700BF2B2101
:10483000284600F036FC20B92321284600F031FC40
:1048400008B1FF2049E7002047E770B505460C4650
:1048500004212046FFF7D0F9206808B9012070BD77
:1048600040216268501C60602068815402216268A7
:10487000501C60602068815429126268501C60607E
:10488000206881546268501C606020688554002054
:10489000E5E701464878022801D001207047887872
:1048A00020B9C8780A2801D10020F7E70120F5E7F0
:1048B00070B505460C4604212046FFF79DF9206897
:1048C00008B9012070BD50216268501C60602068EA
:1048D000815402216268501C606020688154291252
:1048E0006268501C6060206881546268501C60607F
:1048F000206885540020E5E701464878022801D069
:1049000001207047887820B9C8780A2801D1002092
:10491000F7E70120F5E770B505460C46042120466F
:10492000FFF76AF9206808B9012070BD622162684A
:10493000501C60602068815402216268501C6060D5
:104940002068815429126268501C6060206881547C
:104950006268501C6060206885540020E5E70246CC
:104960005078022801D0012070479078B0EB112FC9
:1049700005D1D078CBB2984201D10020F4E70120D4
:10498000F2E770B505460C4604212046FFF734F9DE
:10499000206808B9012070BD70216268501C6060F9
:1049A0002068815402216268501C60602068815434
:1049B00029126268501C6060206881546268501C33
:1049C0006060206885540020E5E7014648780228A9
:1049D00001D001207047887820B9C8780A2801D111
:1049E0000020F7E70120F5E710B504460221204634
:1049F000FFF702F9206808B9012010BDC0216268E4
:104A0000501C60602068815400216268501C606006
:104A1000206881540020F0E710B54FF40071804801
:104A200000F001FC00207F49088010BD7D4800880F
:104A300008B9012070477B4800887B490988884273
:104A400003D1002077490880F4E77648008876494A
:104A500008800120EEE72DE9F04104460D46C82606
:104A6000204600F070FB87B23A4621466F48FCF7BB
:104A7000EBFE0FE0FFF7DAFF48B92946684800F07F
:104A80002CFB20B1FFF7C8FF0020BDE8F0810A2011
:104A9000FCF710FE301EA6F10101CEB2EAD10120D2
:104AA000F3E730B589B004460D46FFF7B5FF2A4657
:104AB0005FA101A800F08CF961A101A8FFF7CBFF6D
:104AC00020B92A4621465948FCF7BEFE09B030BD40
:104AD00070B50546002400BFFFF7A8FF80B959A1B3
:104AE0004F4800F0FAFA044654B13A21204600F04B
:104AF000D8FA044614B1641C204670BD0020FCE7BF
:104B00000520FCF7D7FD281EA5F101018DB2E3D1E8
:104B100000BFF2E708B501210420FCF705F91020D9
:104B20008DF803000120ADF8000003208DF802008D
:104B300069464648FBF73CFE002201214348FBF74B
:104B4000E8FEFA20FCF7B6FD012211463F48FBF7CC
:104B5000E0FE4FF4FA70FCF7ADFDFFF75DFF3CA1FE
:104B60003D48FCF78AFE03E04FF4FA70FCF7A2FD23
:104B70003AA13BA0FFF76FFF0028F5D13AA13648D4
:104B8000FCF77BFE03E04FF4FA70FCF793FD33A1D2
:104B900038A0FFF760FF0028F5D13AA12E48FCF7B6
:104BA0006CFE03E04FF4FA70FCF784FD2BA139A0F2
:104BB000FFF751FF0028F5D13AA12748FCF75DFE29
:104BC00003E04FF4FA70FCF775FD39A13AA0FFF746
:104BD00042FF0028F5D140A11F48FCF74EFE08BD5A
:104BE00010B540F225511148FCF7C2FAB8B10D4892
:104BF0000088B0F5007F02D300200A4908800B48E6
:104C0000001D0088C1B2074802880088401C054B7F
:104C100018800348815420210448FCF7A0FA10BDF5
:104C200004070020B0060020B20600200044004027
:104C300041542B43495053454E443D25640D0A00D1
:104C40003E0000004950442C0000000000080140D4
:104C5000312E2041540D0A00003801404F4B000016
:104C600041540D0A00000000322E2043574D4F449E
:104C7000450D0A0041542B43574D4F44453D310DDE
:104C80000A000000332E2041542B43574448435020
:104C90000D0A000041542B4357444843503D312CEA
:104CA000310D0A00342E2043574A41500D0A0000AE
:104CB000474F54204950000041542B43574A41501C
:104CC0003D22486F6E6F72222C2277777731313018
:104CD00031313231220D0A00352E20455350383201
:104CE000363620496E6974204F4B0D0A00000000D3
:104CF00070B5064600F0E4FA056806F10B0020F0F6
:104D00000704B4429CBF002070BD2B466A68BAB14C
:104D10001068A04210D304F1080188423CBF5068DB
:104D2000586007D35168101941601168091B016070
:104D300058601460101D70BD13465268002AE7D1F8
:104D40002146284600F0C8FA0028DED170BD70B5B3
:104D50000446051F00F0B4FA0068002C14BF446834
:104D600070BD002C18BFAC423CBF20466468F8D32D
:104D700001680A18AA4218BF456003D12A6805468F
:104D80001144016028684119A1421CBF6C6070BDCC
:104D90006168696021680844286070BD7CB51D4663
:104DA00016460C00009001D02044401E074B7B4467
:104DB0002A4669460190304600F083FB05461CB147
:104DC0000020694600F090FB28467CBD41070000AA
:104DD0000FB41CB5084B06AA7B44694600900598A1
:104DE00000F06FFB04460020694600F07DFB204682
:104DF0001CBC5DF814FB00000D0700000FB47CB56F
:104E00000C0009AA009001D02044401E084B7B44AE
:104E100069460190089800F054FB05461CB100203B
:104E2000694600F061FB28467CBC5DF814FB00007D
:104E3000E106000070B50C460546012A05D0287829
:104E4000800600D5EA69002302E0012305E05B1C2F
:104E5000934202D2E05C0028F9D1A869E618C01A92
:104E6000A861286A18442862284600F07FFA04E006
:104E7000D5E9012114F8010B9047B442F8D3284634
:104E800000F08AFA70BD00002DE9F04106460024CA
:104E900010687529314616A510D000F08EFA00284A
:104EA00002DA404213A507E031688A0701D512A54E
:104EB00002E0490704D511A5012401E000F086FABB
:104EC00000210A2206F1240709E0B0FBF2FCB0FB46
:104ED000F2F302FB1C00303078541846491C0028BD
:104EE000F3D123462A463046BDE8F04100F077BAB8
:104EF000000000002D0000002B000000200000003A
:104F00002DE9F05F894604464FF0000ADFF874B1DE
:104F1000FB44C0F820A02046E1688847002874D0F0
:104F2000252806D0D4E901219047206A401C206240
:104F3000F1E700265F462046E168884720280546BD
:104F400007DB312D05D2781910F8200C08B1064383
:104F5000F1E7B00701D526F00406C4F81CA000272D
:104F6000C4F818A02A2D09D0284601F0D2FC38B385
:104F700004EB8708303DC8F8185019E059F8041BB5
:104F8000204604EB87029161E1688847012F0546BE
:104F900018D1E069002820DA26F020061DE0D8F8B4
:104FA000180000EB800005EB40003038C8F818000E
:104FB0002046E1688847054601F0ABFC0028EED1A9
:104FC000012F0AD02E2D08D12046E16888477F1C8A
:104FD0000546022F46F02006C4DBA069002803DA4C
:104FE000404246F00106A061F00701D026F010060D
:104FF0006C2D0BD0682D09D04C2D39D06A2D35D0B1
:10500000742D35D07A2D33D016E038E0E1682F4684
:1050100020468847B842054609D16C2F26D04FF468
:105020008060E168064320468847054604E06C2F0F
:105030001AD04FF4807006430DB3A5F14100192832
:1050400002D8203546F400664A46294620462660A6
:105050004E46FBF7C7F880B101280BD0F61D26F0AD
:10506000070000F1080956E74020E4E78020D8E770
:105070000020D6E706F104094DE7284652E7206AEA
:10508000BDE8F09F4023000070B5064600F01CF913
:105090000468054630460A22002100F067FB2C60B8
:1050A00070BD401ECAB210F8011F8A4202D000290A
:1050B000F9D10020704710B5431E13F8014F002CA2
:1050C000FBD105E011F8014B002C03F8014B03D094
:1050D000521EF7D20021197010BD30B505460B469F
:1050E0002A4613F8014B12F8010B08B1A042F8D080
:1050F0001CB1002802D06D1CF1E7284630BD40EA03
:105100000103024630B59B0710D14FF0013400E097
:1051100008C208C91D1B9D4315EAC41FF8D013F02F
:10512000FF0102F8011B0DD01B0AF8E711F8013B43
:10513000002B02F8013B05D011F8013B002B02F8CF
:10514000013BF3D130BD10B5431C02E010F8011B48
:1051500071B18107FAD14FF0013202C88C1A8C4329
:1051600014EAC211F9D0C01A0A0603D0C01E10BD3D
:10517000C01A10BD0A0401D0801E10BD0902FCD067
:10518000401E10BD421E12F8013F002BFBD111F84A
:10519000013B002B02F8013BF9D17047032A40F292
:1051A000308010F0030C00F0158011F8013BBCF1C9
:1051B000020F624498BF11F801CB00F8013B38BFE1
:1051C00011F8013BA2F1040298BF00F801CB38BFEF
:1051D00000F8013B11F0030300F00083083AC0F02F
:1051E000088051F8043B083A51F804CBA0E80810B5
:1051F000F5E7121D5CBF51F8043B40F8043BAFF3E8
:105200000080D20724BF11F8013B11F801CB48BF41
:1052100011F8012B24BF00F8013B00F801CB48BF77
:1052200000F8012B70474FF000020429C0F01280F3
:1052300010F0030C00F01B80CCF1040CBCF1020F49
:1052400018BF00F8012BA8BF20F8022BA1EB0C011E
:1052500000F00DB85FEAC17C24BF00F8012B00F814
:10526000012B48BF00F8012B70474FF0000200B53A
:10527000134694469646203922BFA0E80C50A0E879
:105280000C50B1F12001BFF4F7AF090728BFA0E827
:105290000C5048BF0CC05DF804EB890028BF40F8F3
:1052A000042B08BF704748BF20F8022B11F0804F35
:1052B00018BF00F8012B7047704770477047000017
:1052C000004870470C09002000487047040900207E
:1052D000704770477047704738B504460A4600204B
:1052E0006946AFF30080002808BF38BD0246009928
:1052F000204600F0B1FA012038BD012000F09FBD2A
:10530000F8B5AFF30080054600200C46102000BF22
:105310000646A819A0420DD9324669460020AFF3CF
:105320000080070008BF00F08AFD0098A04218BF67
:105330000546C419FFF7C4FF05600746F01D20F0BD
:1053400007004619284600F00AF8B44208BFF8BD25
:10535000A21B31463868BDE8F84000F07DBA002154
:105360000160C0E9011070471020704770B5044615
:1053700085690068C10601D5302600E02026C007F7
:1053800007D070BDD4E9012130469047206A401C07
:1053900020626D1EF6D570BD70B504468569007833
:1053A000C00707D170BDD4E9012120209047206AB1
:1053B000401C20626D1EF6D570BD09684A0501D5F6
:1053C00040B27047C905FCD500B2704709684A056C
:1053D00001D5C0B27047C905FCD580B270472DE930
:1053E000F0470D4699469246044600F124080168AC
:1053F000880604D5E06921F01001216000E0012059
:10540000A84201DD471B00E00027A1697A1902EBE1
:105410000900081AA0612078C00602D42046FFF7D0
:10542000A5FF002608E0D4E901211AF806009047FC
:10543000206A401C761C20624E45F4DB2078C006B2
:105440000AD52046FFF792FF06E0D4E9012130207B
:105450009047206A401C2062381EA7F10107F4DC47
:1054600007E0D4E9012118F805009047206A401CA4
:105470002062281EA5F10105F3DC2046FFF78CFF12
:105480002078000602D50220BDE8F0870120FBE766
:1054900011680268006A530501D508700AE0D30557
:1054A00001D5088006E0130603D5C217C1E9000242
:1054B00000E008600120704701694A1C0261087819
:1054C000704700B58FB0CDE9013100210591054944
:1054D0007944CDE9031011466846FFF711FD0FB07E
:1054E00000BD0000E5FFFFFF0A6802F8010B0A603B
:1054F0007047D1E900239A4202D2531C0B6010700E
:10550000704710B5436913B1AFF3008001E0FFF7B6
:1055100091FC012010BD127800F124010A700022D4
:105520004A700122EDE711684FF0FF32E9E7000011
:105530002DE9FF5F15468A460446DFF8AC80F84443
:105540000027D8E900103E46CDE9001010E03AF8F7
:1055500016106A4602A800F052FC411C07D02178C0
:10556000890603D5E269391891420DD80744761CA3
:105570002078800602D5E069B84205DDAE42E6DB60
:105580003AF816000028E2D1A069C01BA0612046AD
:10559000FFF7ECFED8E90010CDE90010002017E07D
:1055A0003AF818106A4602A800F029FCB0F1FF3F53
:1055B00081460BD000250DF1080B05E0D4E901214F
:1055C0001BF8050090476D1C4D45F7D308F101000D
:1055D000B0428046E4DB206A384420622046FFF770
:1055E000DBFEBDE8FF9F0000261D00002DE9F04115
:1055F0008046D21D22F007020025D2E90002F529DB
:1056000015A614D0011E72F1000106DA0023D0EBBA
:10561000030063EB020211A608E0D8F800108B0724
:1056200001D50FA602E0490701D50EA601251146B6
:10563000002408F1240704E000F028F930323A553C
:10564000641C50EA0102F7D12B46324621464046FF
:10565000BDE8F041FFF7C3BE000000002D000000D0
:105660002B0000002000000030B4002100F12404D1
:1056700008E002F00705D208303542EA4372DB0841
:105680006554491C52EA0305F3D10468002310A2B3
:10569000250707D5A40600D421B1C46901230DA2B2
:1056A000641EC46130BCFFF79ABE10B504462146A3
:1056B0001068FFF78BFE02462046BDE8104000232D
:1056C000D2E7D21D22F00701D1E90023CCE7000088
:1056D0000000000030000000F0B40D46018809050C
:1056E00002D5214C7C4402E01F4C7C440E34002146
:1056F00000F1240608E002F00F071209E75D42EA14
:1057000003721B097754491C52EA0307F3D102784C
:105710000023120704D5702D06D009B102231134DD
:105720002246F0BCFFF75BBE01231034F8E770B5EA
:1057300004460D4621461068FFF748FE02462946FA
:105740002046BDE870400023C6E7D21D22F00703C3
:10575000D3E90023C0E70368126843F02003036025
:105760000823C3610023B7E7881B00002DE9F04739
:1057700091460F4680460446002614F8015B2DB181
:1057800000F062F80068405DC007F6D12B2D02D012
:105790002D2D18D0641E4A463946204600F0E0FA06
:1057A00027B13968A14201D1C7F800804FF0020447
:1057B00071050BD54042002803DDFFF785FD04602D
:1057C000A007BDE8F08746F48066E4E70028F8DA31
:1057D000FFF77AFD04606FF00040F2E710B5203A61
:1057E000C0F00B80B1E81850203AA0E81850B1E89A
:1057F0001850A0E81850BFF4F5AF5FEA027C24BF50
:10580000B1E81850A0E8185044BF18C918C0BDE846
:1058100010405FEA827C24BF51F8043B40F8043B0F
:1058200008BF7047D20728BF31F8023B48BF11F8C4
:10583000012B28BF20F8023B48BF00F8012B70471E
:10584000004870470409002010B500F025FB001D3A
:1058500010BD00BFCD100000034640688C460028F4
:1058600018BF88423CBF03464068F8D31868184404
:10587000884207D00CF1030020F00700001D411AF8
:10588000521A0146081D0A60FFF761BA30B5B0F13F
:105890000A024FEA900E71F100034EEA817EB0EBEE
:1058A0000E0061EB91014FEA101E4EEA017E10EBF3
:1058B0000E0041EB11114FEA102E4EEA016E10EB73
:1058C0000E0041EB11214FEA104E4EEA014E10EB53
:1058D0000E0041EB1141401841F100014FEAD000A8
:1058E00040EA41704FEAD10110EB80054FEA810494
:1058F00044EA907444EB01046D1944EB0404521B18
:10590000A3414FF0000348BF0A3200D530BD401C10
:1059100041F1000130BD70472DE9FF4F0C461E4696
:105920004FF0FF378BB0D2E90001DDF860800A90BC
:105930008A46C1F30A5505B93D46002108464FF095
:105940000000BAF1000F00F4400005DA00EB80001F
:105950004FF4400101EA50004FEA9059B9F1010FAC
:1059600000DDB9460A9850EA4A000ED044F61050BD
:10597000A5F2FF3545432F14B8F1000F1ED0754234
:10598000291E1EDDC9F100021CE0B8F1010F4FF025
:10599000000001D0302103E0F24305E02154401C17
:1059A000B042FBDB30460022002121540B99C1F8A4
:1059B0000880C1E900200FB0BDE8F08FBD1B6D1C51
:1059C000DEE74A4600DA694206A800F0B7FA06ABFD
:1059D00093E8070003AB83E8070050460A9900F0FC
:1059E000BCFB8DE80700A0F500501F38009003981D
:1059F000002D0ADD42F21F014A460844002303A994
:105A00000390684600F025FE09E0A0F500504A46E4
:105A10001F38002303A90390684600F02FFE8DE88D
:105A200007000004000C03D04FF0FF30410800E0F5
:105A30001046B8F1000F03D00022009215461EE078
:105A4000751E05D4FFF722FF303262556D1EF9D561
:105A5000B3460122084302D000227F1C04E02078D4
:105A6000302801D100227F1E002A099784D01DE032
:105A7000112D07DAFFF70AFF303262556D1C50EA2C
:105A80000102F5D1084302D00098C8B10EE0002110
:105A9000681E05E0235C625C63542254401E491C6E
:105AA0008142F7DBAB46A81B401E0990002004F89A
:105AB0000B000B98099AC0F80880C0E9002B7AE720
:105AC00011264FF0000857E72DE9F04F88460446AD
:105AD000D21D22F0070191B0D1E90001CDE90A0100
